:020000040800F2
:10000000400D002081020008890200088B020008D0
:100010008D0200088F020008910200080000000015
:100020000000000000000000000000009302000833
:1000300095020008000000009702000899020008DD
:100040009B0200089B0200089B0200089B0200081C
:100050009B0200089B0200089B0200089B0200080C
:100060009B0200089B0200089B0200089B020008FC
:100070009B0200089B0200089B0200089B020008EC
:100080009B0200089B0200089B0200089B020008DC
:100090009B0200089B0200089B0200089B020008CC
:1000A0009B0200089B0200089B0200089B020008BC
:1000B0009B0200089B0200089B0200089B020008AC
:1000C0009B0200089B0200089B0200089B0200089C
:1000D0009B020008ED1700089B020008A918000801
:1000E0009B0200089B0200089B0200089B0200087C
:1000F0009B0200089B0200089B0200089B0200086C
:100100009B0200089B0200089B0200089B0200085B
:100110009B0200089B0200089B0200089B0200084B
:100120009B0200089B0200089B0200089B0200083B
:100130009B0200089B0200089B0200089B0200082B
:100140009B0200089B0200089B0200089B0200081B
:100150009B0200089B0200089B0200089B0200080B
:100160009B0200089B0200089B0200089B020008FB
:100170009B0200089B0200089B0200089B020008EB
:100180009B0200089B02000800F002F800F068F8EB
:100190000AA090E8000C82448344AAF10107DA45E2
:1001A00001D100F05DF8AFF2090EBAE80F0013F0CC
:1001B000010F18BFFB1A43F0010318476427000022
:1001C0008427000010F8013B0A4413F0030408BF21
:1001D00010F8014B1D1108BF10F8015B641E05D01B
:1001E00010F8016B641E01F8016BF9D1002D15D0D8
:1001F00010F8014B03F00C030C2BA1EB04040ABF15
:1002000010F8013BA4EB8314A4EB032405F10103D4
:1002100014F8016B5B1E01F8016BF9D5914238BFF0
:1002200010F8013BD1D3704700230024002500269D
:10023000103A28BF78C1FBD8520728BF30C148BF49
:100240000B607047642900F0A780732900F071816A
:10025000002070471FB501F051FF1FBD10B510BD44
:1002600000F0C2F91146FFF7F5FF01F08DFD00F037
:10027000E0F903B4FFF7F2FF03BC01F07CFC0000DF
:100280000948804709480047FEE7FEE7FEE7FEE72A
:10029000FEE7FEE7FEE7FEE7FEE7FEE70448054966
:1002A000054A064B704700001D140008890100082C
:1002B00040070020400D0020400900204009002098
:1002C000704700000FB4044910B503AA029800F06B
:1002D00035F910BC5DF814FB080000202DE9F04151
:1002E0000E460446002020622046E168884730B36D
:1002F000252805D0D4E901219047206A401CF2E767
:10030000E168204600278847050018D0A5F1410084
:10031000192802D820354FF4006732462946204676
:100320002760FFF78FFF40B1012804D0F61D26F0AB
:1003300007060836D8E7361DD6E72846DAE7206AEA
:10034000BDE8F08170B50C460546012A05D0287835
:10035000800600D5EA69002302E0012305E05B1C6A
:10036000934202D2E05C0028F9D1A869E618C01ACD
:10037000A861286A184428622846AFF3008004E088
:10038000D5E9012114F8010B9047B442F8D328466F
:10039000AFF3008070BD00002DE9F0410646002457
:1003A00010687529314616A510D0AFF300800028DB
:1003B00002DA404213A507E031688A0701D512A589
:1003C00002E0490704D511A5012401E0AFF3008044
:1003D00000210A2206F1240709E0B0FBF2FCB0FB81
:1003E000F2F302FB1C00303078541846491C0028F8
:1003F000F3D123462A463046BDE8F04100F02EB83E
:10040000000000002D0000002B0000002000000074
:100410004FF000020429C0F0128010F0030C00F02D
:10042000A180CCF1040CBCF1020F18BF00F8012B25
:10043000A8BF20F8022BA1EB0C0100F093B85FEAF3
:10044000C17C24BF00F8012B00F8012B48BF00F845
:10045000012B704770477047704770472DE9F04790
:100460000D4699469246044600F124080168880624
:1004700004D5E06921F01001216000E00120A842CC
:1004800001DD471B00E00027A1697A1902EB090092
:10049000081AA0612078C00602D42046AFF300807D
:1004A000002608E0D4E901211AF806009047206AE6
:1004B000401C761C20624E45F4DB2078C0060AD52D
:1004C0002046AFF3008006E0D4E9012130209047B8
:1004D000206A401C2062381EA7F10107F4DC07E007
:1004E000D4E9012118F805009047206A401C2062D9
:1004F000281EA5F10105F3DC2046AFF3008020782B
:10050000000602D50220BDE8F0870120FBE710B508
:10051000436913B1AFF3008001E0FFF713FF01203F
:1005200010BD127800F124010A7000224A700122E5
:10053000EDE711684FF0FF32E9E70000074B70B5B7
:100540000D467B4400F039F80446284600F048F890
:1005500010B14FF0FF3070BD204670BD371700005E
:100560004FF0000200B5134694469646203922BF4C
:10057000A0E80C50A0E80C50B1F12001BFF4F7AF97
:10058000090728BFA0E80C5048BF0CC05DF804EB79
:10059000890028BF40F8042B08BF704748BF20F8E7
:1005A000022B11F0804F18BF00F8012B704700009C
:1005B00001694A1C02610878704700B58FB0CDE927
:1005C00001310021059105497944CDE90310114617
:1005D0006846FFF783FE0FB000BD0000E5FFFFFF98
:1005E000007B00F080007047754600F029F8AE46A9
:1005F00005006946534620F00700854618B020B52F
:10060000FFF74CFEBDE820404FF000064FF000071A
:100610004FF000084FF0000B21F00701AC46ACE8AA
:10062000C009ACE8C009ACE8C009ACE8C0098D4617
:1006300070470446AFF300802046FFF71AFE000023
:1006400000487047E006002010B550210F4801F027
:1006500082F800210D4801F080F800210B4801F0DC
:100660007EF85021094801F07CF80021084801F08B
:1006700072F85021064801F070F80021044801F09A
:100680006EF85021024801F06CF810BD000C0040DB
:100690000008004010B58AB004460121042000F093
:1006A0009FFD0121022000F08BFD4FF4707000903F
:1006B00002208DF8040003208DF8050000208DF83D
:1006C000060001208DF8070069462D4800F04EFA1B
:1006D000022206212A4800F091FA02220721284826
:1006E00000F08CFA02220821254800F087FA022245
:1006F0000921234800F082FA6320089040F28F60BD
:10070000ADF81C000020ADF82400ADF81E0007A9CC
:100710001C4801F029F86020ADF808000120ADF870
:100720000A0004940020ADF8140002A9154800F056
:10073000C7FE02A9134800F00BFF02A9114800F000
:1007400067FF02A90F4800F0BDFF08210D4800F027
:10075000F5FE08210B4800F04DFF0821094800F084
:10076000A7FF0821074800F0E9FF0121054800F034
:100770008FFE0121034800F097FE0AB010BD000073
:10078000000402400008004010B500210F4800F0AE
:10079000E2FF50210D4800F0E0FF50210B4800F02F
:1007A000DEFF0021094800F0DCFF5021084800F07E
:1007B000D2FF0021064800F0D0FF5021044800F08D
:1007C000CEFF0021024800F0CCFF10BD000C00401D
:1007D0000008004010B58AB004460121082000F04E
:1007E000FFFC0121084600F0FBFC0121084600F057
:1007F000E7FC0320009002208DF8040003208DF810
:10080000050000208DF8060001208DF807006946DC
:10081000354800F0ABF90C20009002208DF8040060
:1008200003208DF8050000208DF8060002208DF8C9
:10083000070069462C4800F099F9022200212A4855
:1008400000F0DCF902220121274800F0D7F902224A
:100850001146254800F0D2F902220321224800F077
:10086000CDF96320089040F28F60ADF81C000020A5
:10087000ADF82400ADF81E0007A91C4800F074FF75
:100880006020ADF808000120ADF80A0004940020B3
:10089000ADF8140002A9154800F012FE02A9134891
:1008A00000F056FE02A9114800F0B2FE02A90F485E
:1008B00000F008FF08210D4800F040FE08210B4819
:1008C00000F098FE0821094800F0F2FE08210748D0
:1008D00000F034FF0121054800F0DAFD0121034852
:1008E00000F0E2FD0AB010BD00000240000C004024
:1008F00010B564210F4800F02EFF00210D4800F0D4
:100900002CFF64210B4800F02AFF0021094800F069
:1009100028FF0021084800F01EFF6421064800F06F
:100920001CFF5021044800F01AFF0021024800F08B
:1009300018FF10BD000C00400008004010B5002159
:100940000F4800F008FF64210D4800F006FF002169
:100950000B4800F004FF6421094800F002FF642105
:10096000084800F0F8FE0021064800F0F6FE0021DD
:10097000044800F0F4FE6421024800F0F2FE10BDCD
:10098000000C00400008004010B532210F4800F074
:10099000E2FE32210D4800F0E0FE32210B4800F06B
:1009A000DEFE3221094800F0DCFE3221084800F06A
:1009B000D2FE3221064800F0D0FE3221044800F079
:1009C000CEFE3221024800F0CCFE10BD000C0040EB
:1009D0000008004070B50024002500F085F800F004
:1009E00033F838B300BF12E000250DE01348005D76
:1009F0004006000E1149085500F050F80F49095DF6
:100A000008430E4908556D1C082DEFDB641C052CAE
:100A1000EADB0A4800780949497808440749897897
:100A200008440649C978084404490979884203D032
:100A3000002070BD0020FCE70120FAE78C060020B2
:100A400010B500F077F810BD10B5002400F060F884
:100A500003E0012001F0E6F8641C08210E4800F0D4
:100A6000F0F8012801D1642CF3D3642C01D30020C9
:100A700010BD002403E0012001F0D4F8641C08211B
:100A8000054800F0DEF808B9642CF4D3642C01D3D7
:100A90000020EDE70120EBE70004024010B5002440
:100AA00003E0012001F0BEF8641C08210D4800F0AD
:100AB000C8F8012801D1642CF3D3002403E00120FD
:100AC00001F0B0F8641C0821064800F0BAF808B933
:100AD000642CF4D3282001F0A5F80821014800F087
:100AE000B0F810BD0004024010B500F023F8082152
:100AF000064800F0AFF8142001F040F80821034840
:100B000000F0AAF81E2001F08DF810BD000402408C
:100B10001CB50121022000F053FB00208DF80400D9
:100B2000082000906946024800F020F81CBD000033
:100B3000000402401CB50121022000F041FB01200D
:100B40008DF8040003208DF8050000208DF80600C4
:100B5000082000906946044800F008F8082102487F
:100B600000F07AF81CBD000000040240F0B50A460F
:100B700000210023002400BF3DE0012505FA01F318
:100B8000156805EA03049C4234D105684F0003262A
:100B9000BE40B543056015794E00B5400668354343
:100BA00005601579012D02D01579022D16D18568C1
:100BB0004F000326BE40B543856055794E00B540D1
:100BC000866835438560456801268E40B54345609B
:100BD000456896798E40B6B235434560C5684F008A
:100BE0000326BE40B543C560D5794E00B540C66802
:100BF0003543C560491C1029BFD3F0BDF0B50023B3
:100C000000244D07ED0E02FA05F3CE1000F1200589
:100C100055F826504E07F70E0F26BE40B543CF10AD
:100C200000F1200646F82750CE1000F1200555F8B7
:100C3000265045EA0304CE1000F1200545F8264071
:100C4000F0BD0246002013690B400BB1012000E00B
:100C50000020704741837047018370471CB5012114
:100C6000112000F0ADFA1820009000208DF804004B
:100C700003208DF8050001208DF80700694606481D
:100C8000FFF774FF0120009002208DF807006946ED
:100C90000248FFF76BFF1CBD00100240000002403D
:100CA00010B520210148FFF7CCFF10BD000C024019
:100CB00070B5002100230F22C4781CB3174C2468A0
:100CC00004F4E064C4F5E064C4F30721C1F1040452
:100CD000E3B20A4144789C40E1B284781440214355
:100CE0000C07210E0E4C05786155047804F01F05A1
:100CF0000124AC4005786D11AD0005F1E025C5F883
:100D0000004109E0047804F01F050124AC40054DC2
:100D10000678761145F8264070BD00000CED00E025
:100D200000E400E080E100E002490143024A116072
:100D3000704700000000FA050CED00E070B50024DB
:100D400019E004F1B001C8B2002100F0A7F90021B8
:100D5000022000F0A3F90021102000F09FF90025E7
:100D600005E00121002000F099F9681CC5B2802D32
:100D7000F7DB601CC4B2082CE3DB70BD1CB501219D
:100D80000B2000F01DFA4FF47040009001208DF808
:100D9000040002208DF8050069464D48FFF7E6FE85
:100DA0004FF48070009069464A48FFF7DFFE4FF429
:100DB00080414748FFF750FF642000F0DFFE4FF40A
:100DC00080414348FFF746FF642000F0D7FE4FF410
:100DD00080413F48FFF740FF0021AE2000F05EF960
:100DE0000021084600F05AF90021102000F056F9C1
:100DF0000021402000F052F90021812000F04EF93E
:100E00000021CF2000F04AF90021A12000F046F98E
:100E10000021C82000F042F90021A62000F03EF990
:100E20000021A82000F03AF900213F2000F036F917
:100E30000021D32000F032F90021084600F02EF9FD
:100E40000021D52000F02AF90021802000F026F9A9
:100E50000021D92000F022F90021F12000F01EF934
:100E60000021DA2000F01AF90021122000F016F912
:100E70000021DB2000F012F90021402000F00EF9E3
:100E80000021202000F00AF90021022000F006F9DC
:100E900000218D2000F002F90021142000F0FEF85E
:100EA0000021A42000F0FAF80021A62000F0F6F8B6
:100EB0000021AF2000F0F2F80021AF2000F0EEF8A2
:100EC000FFF73CFF0021084600F006F81CBD0000BB
:100ED00000040240000C024070B504460D4605F1C6
:100EE000B001C8B2002100F0D9F8102141EA141075
:100EF000002100F0D3F804F00F0141F001000021BF
:100F000000F0CCF870BD00002DE9F04180460E469F
:100F10001546002731464046FFF7DEFF00240AE071
:100F2000124A02EB8511085D012100F0B7F8781C28
:100F3000C7B2601CC4B2102CF2DB701CC1B24046B8
:100F4000FFF7CAFF00240CE06900491C074A02EBC6
:100F50004111085D012100F0A1F8781CC7B2601CA6
:100F6000C4B2102CF0DBBDE8F08100000C000020C2
:100F70002DE9F04107460E46904600250024A8F1D1
:100F80002000C5B27F2F02DD0027B01CC6B231465B
:100F90003846FFF7A1FF002408E004EB05110F4AD3
:100FA000505C012100F07AF8601CC4B2082CF4DB1C
:100FB000701CC1B23846FFF78FFF002409E004EB34
:100FC00005110831054A505C012100F067F8601CEA
:100FD000C4B2082CF3DBBDE8F08100002E2300082A
:100FE0002DE9FF5F074691461D460E9E4FF0000A11
:100FF000002433E0281B401EC1B20A2001F006F88D
:10100000B9FBF0F00A21B0FBF1F201FB1208BAF1D2
:10101000000F13D1681EA04210DDB8F1000F0BD1F4
:10102000B34606EBDB71491001FB0471C8B2202204
:101030000199FFF79DFF0FE04FF0010AB34606EB61
:10104000DB71491001FB0471C8B208F13001CAB26A
:101050000199FFF78DFF00BF601CC4B2AC42C9DB31
:10106000BDE8FF9F2DE9F04104460F4615460026D6
:101070000EE0AA5D39462046FFF77AFF04F108002A
:10108000C4B2782C02DD0024B81CC7B2701CC6B2F2
:10109000A85D0028EDD1BDE8F081000070B50446E0
:1010A0000E462EB14FF400411C48FFF7D5FD04E079
:1010B0004FF400411948FFF7CDFD4FF480711848F7
:1010C000FFF7C8FD00251BE04FF480511348FFF7E0
:1010D000C1FD04F0800028B14FF400510F48FFF724
:1010E000BBFD04E04FF400510C48FFF7B3FD4FF493
:1010F00080510A48FFF7B0FD6006040E681CC5B2B7
:10110000082DE1DB4FF480710548FFF7A5FD4FF492
:1011100000410248FFF7A0FD70BD0000000402403E
:10112000000C024010B5002211461046FFF7ECFEFD
:10113000082200211220FFF7E7FE022200212420CE
:10114000FFF7E2FE032200213620FFF7DDFE3A2200
:1011500000214620FFF70CFF042206210020FFF7A4
:10116000D3FE052206211220FFF7CEFE06221146ED
:101170002420FFF7C9FE072206213620FFF7C4FE10
:101180003A2206214620FFF7F3FE0E22032100201B
:10119000FFF7BAFE0F2203211220FFF7B5FE10223F
:1011A00003212420FFF7B0FE112203213620FFF790
:1011B000ABFE3A2203214620FFF7DAFE10BD000005
:1011C00029B1064A12680243044B1A6004E0034A3C
:1011D00012688243014B1A607047000030380240A9
:1011E00029B1064A12680243044B1A6004E0034A1C
:1011F00012688243014B1A60704700004038024079
:1012000029B1064A12680243044B1A6004E0034AFB
:1012100012688243014B1A60704700004438024054
:10122000F0B5002100220024022500260223324FBF
:101230003F6807F00C0121B1042905D0082937D1F6
:1012400005E02E4F076036E02D4F076033E02A4F50
:101250003F1F3F68C7F38056274F3F1F3F6807F087
:101260003F036EB1264FB7FBF3F7DFF88CC0ACF14C
:10127000040CDCF800C0CCF3881C07FB0CF40CE079
:101280001E4FB7FBF3F7DFF870C0ACF1040CDCF8CD
:1012900000C0CCF3881C07FB0CF4174F3F1F3F68BE
:1012A000C7F301477F1C7D00B4FBF5F7076002E040
:1012B000124F076000BF00BF0F4F3F6807F0F001FB
:1012C0000909104F7A5C0768D74047600A4F3F68AA
:1012D00007F4E051890A0B4F7A5C4768D740876072
:1012E000054F3F6807F46041490B064F7A5C476839
:1012F000D740C760F0BD0000083802400024F40069
:1013000000127A00920600200CB500200190009097
:101310003448006840F480303249086000BF3148EA
:10132000006800F4003000900198401C0190009883
:1013300018B90198B0F5A04FF1D12A48006800F41F
:10134000003010B10120009001E0002000900098D2
:10135000012846D123484030006840F080502149A0
:10136000403108602048006840F440401E49086051
:101370001C48083000681B490831086008460068AE
:1013800040F4004008600846006840F4A05008603F
:101390001648091F0860081F006840F08070091F88
:1013A000086000BF0F48006800F000700028F9D006
:1013B00040F205700E4908600A480830006820F0C5
:1013C00003000849083108600846006840F0020040
:1013D000086000BF03480830006800F00C000828CF
:1013E000F8D10CBD0038024000700040085440079E
:1013F000003C0240042808D14FF0E021096941F087
:1014000004014FF0E022116107E04FF0E02109698B
:1014100021F004014FF0E0221161704710B515482A
:10142000006840F47000134908601348006840F0F9
:1014300001001149086000200F49083108600E487A
:1014400000680E4908400C4908600D48091D0860F5
:10145000081F006820F48020091F0860002006494A
:101460000C310860FFF750FF4FF0006001498039F0
:10147000086010BD88ED00E000380240FFFFF6FE76
:101480001030002410B56FF00400FFF7B3FF10BD5B
:1014900021B1028842F08002028004E002884FF607
:1014A0007F731A400280704721B1028842F0010226
:1014B000028004E002884FF6FE731A4002807047F3
:1014C00070B5002400220023058C4FF6FE763540CF
:1014D0000584028C8388048B4FF68F752C40B51ED3
:1014E0002C400D882C43751E2A408D892A434D8837
:1014F0002A43104DA84202D00F4DA84213D14FF6F7
:10150000F7752A40CD892A434FF6FB752A408D880E
:101510002A434FF6FF652B404FF6FF552B400D8AAF
:101520002B434D8A2B43838004838D68456302845B
:1015300070BD000000000140000401400A46002187
:10154000018B4FF6F7731940114301837047000078
:1015500070B5002400220023058C4FF6EF7635404D
:101560000584028C8388048B48F6FF752C404FF667
:10157000FF452C400D884FF6FF7606EA05252C43E3
:101580004FF6DF752A408D8906EA05152A434D88F6
:1015900006EA05152A43154DA84202D0144DA8426B
:1015A0001DD14FF67F752A40CD894FF6FF7606EAAA
:1015B00005152A434FF6BF752A408D8806EA0515A2
:1015C0002A434FF6FF352B404FF2FF752B400D8A13
:1015D00006EA85052B434D8A06EA85052B43838061
:1015E00004838D688563028470BD000000000140A3
:1015F000000401400A460021018B4FF2FF7319409D
:101600004FF6FF7303EA022319430183704700007A
:1016100070B5002400220023058C4FF6FF6635408C
:101620000584028C8388848B4FF68F752C404FF68F
:10163000FC752C400D882C434FF6FF552A408D89B0
:101640004FF6FF7606EA05252A434D8806EA05256A
:101650002A43154DA84202D0144DA8421DD14FF285
:10166000FF752A40CD894FF6FF7606EA05252A4305
:101670004FF6FF352A408D8806EA05252A434EF6A7
:10168000FF752B404DF6FF752B400D8A06EA0515B8
:101690002B434D8A06EA05152B43838084838D688E
:1016A000C563028470BD00000000014000040140D9
:1016B0000A460021818B4FF6F7731940114381834D
:1016C0007047000070B5002200230024058C4EF600
:1016D000FF7635400584038C8488828B48F6FF753D
:1016E0002A404FF6FF452A400D884FF6FF7606EA5E
:1016F00005252A434DF6FF752B408D8906EA0535F1
:101700002B434D8806EA05352B430A4DA84202D0EB
:10171000094DA84208D14BF6FF752C400D8A4FF6B3
:10172000FF7606EA85152C43848082838D680564E4
:10173000038470BD00000140000401400A460021FE
:10174000818B4FF2FF7319404FF6FF7303EA0223B8
:101750001943818370474163704781637047C16358
:10176000704701647047000000220288184B9842BD
:101770000ED0184B98420BD0B0F1804F08D0164BCA
:10178000984205D0154B984202D0154B984204D18F
:101790004FF68F731A404B881A43124B984207D06A
:1017A000114B984204D04FF6FF431A400B891A435D
:1017B00002804B68C3620B880385054B984202D0B8
:1017C000044B984201D18B7A0386012383827047B0
:1017D00000000140000401400004004000080040F7
:1017E000000C0040001000400014004010B540F212
:1017F0002551274800F0FCF8002847D040F2255139
:10180000234800F0CDF8224800F0ACF9C1B22148DD
:1018100002780078401C1F4B18701F4881541846EE
:101820000078801E1C49085C0D282FD118460078CE
:10183000401E085C0A2829D100201849087011E0D0
:10184000154816490978405C1549144A127888549D
:1018500000211148114A1278815410480078401C28
:101860000E4908700D4800780A4909788842E7DB7C
:101870000020084908700A490AA0FEF723FD08481D
:1018800000F0D0FB14210648FEF7C2FD10BD000099
:101890000010014000000020B806002001000020D8
:1018A000CC0600202573000010B540F225510E48EB
:1018B00000F09EF848B140F225510B4800F070F856
:1018C000094800F04FF9094908600848008881B2CA
:1018D000074800F04CF900BF8021054800F07BF874
:1018E0000028F9D010BD000000480040040000208E
:1018F0000010014010B588B0044601210220FFF716
:101900005FFC01218804FFF76BFC07220A212248B3
:10191000FFF774F907220B211F48FFF76FF94FF407
:101920004060069002208DF81C008DF81D000020FC
:101930008DF81E0001208DF81F0006A91648FFF73C
:1019400015F902940020ADF80C00ADF80E00ADF8CA
:101950001000ADF814000C20ADF8120002A90F48D9
:1019600000F096F801210D4800F029F8012240F21C
:1019700025510A4800F066F827208DF8040003205E
:101980008DF805008DF8060001208DF8070001A8EC
:10199000FFF78EF908B010BD000402400048004077
:1019A00010B50022002340F66A14A14200D100BF06
:1019B0000A1201249440A3B2DC43048010BD21B17B
:1019C000828942F40052828104E082894DF6FF73DD
:1019D0001A408281704702460020B1F5007F00D195
:1019E00000BF13880B400BB1012000E000207047BE
:1019F00070B50246002400230025002040F66A1638
:101A0000B14200D100BFC1F3421501F01F0301260E
:101A100006FA03F3012D02D19689334006E0022D28
:101A200002D1168A334001E0968A33400C12012617
:101A300006FA04F41688344013B10CB1012000E01A
:101A4000002070BDF0B503460024002600250020CC
:101A500040F66A17B94200D100BF1846C1F34214DC
:101A600001F01F06012707FA06F5012C01D10C3001
:101A700004E0022C01D1103000E014301AB10768E4
:101A80002F43076002E00768AF430760F0BD000026
:101A90002DE9FF4705460E460024A14600BFA0469B
:101AA000B08900B100BF2C8A24F44054F08804436C
:101AB0002C82AC8941F20C608443B08831890843A0
:101AC000718908430443AC81AC8A24F44074B08922
:101AD0000443AC826846FFF7A3FB2048854202D04E
:101AE0001F48854202D1DDF80C9001E0DDF8089036
:101AF000A88900F4004040B109EBC90000EB0910CF
:101B000031684900B0FBF1F707E009EBC90000EBD1
:101B1000091031688900B0FBF1F76420B7FBF0F0E1
:101B200004012009642101FB1078A88900F4004019
:101B300040B1322000EBC800B0FBF1F000F007002C
:101B4000044308E0322000EB08106421B0FBF1F000
:101B500000F00F0004432C81BDE8FF870010014016
:101B60000014014001468888C0F308007047C1F3A3
:101B700008028280704700BF704700000146144A87
:101B80001268D2084FF47A73B2FBF3F24A434FF073
:101B9000E0235A6100229A611A46126942F001025A
:101BA0001A6100BF4FF0E022106900F001021AB183
:101BB00000F48032002AF5D04FF0E022126922F0C2
:101BC00001024FF0E0231A6100229A617047000081
:101BD000A40600200146124A1268D2084A434FF078
:101BE000E0235A6100229A611A46126942F001020A
:101BF0001A6100BF4FF0E022106900F001021AB133
:101C000000F48032002AF5D04FF0E022126922F071
:101C100001024FF0E0231A6100229A617047000030
:101C2000A40600200146134A1268D208124BB2FBE8
:101C3000F3F24A434FF0E0235A6100229A611A46B8
:101C4000126942F001021A6100BF4FF0E0221069F0
:101C500000F001021AB100F48032002AF5D04FF0F2
:101C6000E022126922F001024FF0E0231A61002203
:101C70009A617047A406002040420F0070B50446E8
:101C80000D46A1B20548FFF772FF00BF802103484F
:101C9000FFF7A1FE0028F9D0204670BD00480040A3
:101CA00010B5002420211348FEF7D4FF0520FFF7CC
:101CB00065FF20210F48FEF7CFFF0F20FFF7B2FF8F
:101CC00020210C48FEF7C6FF00BF40210A48FEF75E
:101CD000B8FF0028F9D003E00920FFF7A3FF641C38
:101CE00040210548FEF7ADFF0128F5D0640804EB5C
:101CF000440010BD00040240001002401CB5012148
:101D00000846FFF75DFA4FF40070009001208DF84F
:101D1000040000208DF8060001208DF80700032044
:101D20008DF8050069460448FEF720FF4FF4007166
:101D30000148FEF78FFF1CBD000002401CB50121C9
:101D40001220FFF73DFA01208DF8040003208DF8E2
:101D5000050000208DF8060001208DF807002020E6
:101D6000009069460648FEF701FF00208DF8040048
:101D70004020009069460348FEF7F8FE1CBD0000B5
:101D8000000402400010024008B5FEF759FE00248E
:101D90004FF4A060FEF7C8FFFFF774FB4FF4E1308B
:101DA00000F056F94FF41650FFF7A4FDFEF756FF6A
:101DB000FFF7A4FFFFF7C2FFFEF7E0FFFEF7BEFF4D
:101DC000FFF7B0F9FEF7BAFF5EA204210020FFF78B
:101DD00049F95EA206210020FFF744F95DA2002127
:101DE0000846FFF73FF957A204210020FFF73AF910
:101DF00056A206210020FFF735F958A20221002043
:101E0000FFF730F900F0EAF83220FEF7E3FC322069
:101E1000FEF740FC0120FFF7DDFE91E0FEF7DAFD62
:101E20004F48027881784FA0FEF74CFA4FF40071CA
:101E30005648FEF70FFFFFF733FF0A2190FBF1F042
:101E400084B2214652A0FEF73DFA14200423224614
:101E5000002100904620FFF7C3F81420009040486E
:101E60008278042319464620FFF7BAF81420009020
:101E70003B480278042306214620FFF7B1F8FEF71D
:101E80000FFF28B947A202214620FFF7EBF808E030
:101E9000FEF706FF012804D144A202214620FFF7E5
:101EA000E1F844480068012805D1FEF76DFC42A026
:101EB000FEF708FA44E03F480068022805D1FEF723
:101EC000C3FB3EA0FEF7FEF93AE03A48006803285B
:101ED00005D1FEF70DFD3BA0FEF7F4F930E03548E3
:101EE0000068042805D1FEF729FD38A0FEF7EAF9BD
:101EF00026E03048006828B9FEF746FD35A0FEF719
:101F0000E1F91DE02B480068082819D1FEF73CFCD8
:101F1000142C0CDC052C0ADDFEF7EAFC4FF40071F2
:101F20001A48FEF799FE6420FFF728FE08E0052C0A
:101F300004DC002C02DBFEF727FD01E0FEF724FCA9
:101F40006CE7000074656D703A00000068756D699B
:101F50003A0000004465726563743A004D513A00DE
:101F60008C060020E6B8A9E5BAA6E698AF2025645D
:101F700020E28483EFBC8CE6B9BFE5BAA6E698AF51
:101F800020256420252552480A0000000000024058
:101F900064697374616E6365203D20256420636D00
:101FA0000A000000464C415345000000545255457C
:101FB0000000000004000020474F0A004241434B4C
:101FC0000A0000004C4546540A00000052494748A8
:101FD000540A000053544F500A0000001CB5012160
:101FE0000820FFF7EDF82020009000208DF8040075
:101FF00002208DF8050000208DF807006946024890
:10200000FEF7B4FD1CBD0000000C024010B50246F6
:10201000012000E050430B00A1F10104E1B2F9D12D
:1020200010BD000010B504460BE014F8011B074872
:10203000FFF79DFD00BF80210448FFF7CCFC00287E
:10204000F9D014B120780028EFD110BD004800402D
:1020500010B588B0044601210846FFF7B1F8012108
:102060001020FFF7CDF8072209212248FEF7C6FD10
:1020700007220A211F48FEF7C1FD4FF4C0600690F9
:1020800002208DF81C008DF81D0000208DF81E0028
:1020900001208DF81F0006A91648FEF767FD02947F
:1020A0000020ADF80C00ADF80E00ADF81000ADF852
:1020B00014000C20ADF8120002A90F48FFF7E8FC4D
:1020C00001210D48FFF77BFC012240F225510A480F
:1020D000FFF7B8FC25208DF8040003208DF80500DB
:1020E0008DF8060001208DF8070001A8FEF7E0FD3D
:1020F00008B010BD00000240001001404FF04070D9
:10210000E1EE100A70470000000000000000002F00
:10211000000000000700070000147F147F14002453
:102120002A7F2A1200626408132300364955225080
:1021300000000503000000001C22410000004122B5
:102140001C000014083E08140008083E080800009F
:1021500000A0600000080808080800006060000097
:10216000002010080402003E5149453E0000427F15
:102170004000004261514946002141454B31001861
:1021800014127F10002745454539003C4A49493023
:1021900000017109050300364949493600064949DD
:1021A000291E0000363600000000563600000008E8
:1021B00014224100001414141414000041221408C5
:1021C00000020151090600324959513E007C1211AA
:1021D000127C007F49494936003E41414122007F3F
:1021E0004141221C007F49494941007F09090901F9
:1021F000003E4149497A007F0808087F0000417F7E
:102200004100002040413F01007F08142241007F2F
:1022100040404040007F020C027F007F0408107F96
:10222000003E4141413E007F09090906003E4151FF
:10223000215E007F091929460046494949310001BC
:10224000017F0101003F4040403F001F2040201F10
:10225000003F4038403F00631408146300070870D3
:10226000080700615149454300007F414100005586
:102270002A552A55000041417F0000040201020452
:10228000004040404040000001020400002054543F
:102290005478007F4844443800384444442000388F
:1022A0004444487F00385454541800087E09010201
:1022B0000018A4A4A47C007F080404780000447DD6
:1022C0004000004080847D00007F10284400000012
:1022D000417F4000007C04180478007C08040478E6
:1022E00000384444443800FC2424241800182424D2
:1022F00018FC007C080404080048545454200004CE
:102300003F444020003C4040207C001C2040201CDA
:10231000003C4030403C004428102844001CA0A051
:10232000A07C004464544C4414141414141400008D
:10233000000000000000000000000000000000009D
:1023400000F8000000000000003330000000001022
:102350000C06100C0600000000000000000040C049
:102360007840C0784000043F04043F04040000703B
:1023700088FC08300000001820FF211E0000F00833
:10238000F000E018000000211C031E211E0000F0D8
:102390000888700000001E21232419272110101620
:1023A0000E0000000000000000000000000000001F
:1023B00000E018040200000000071820400000029E
:1023C0000418E00000000040201807000000404012
:1023D00080F0804040000202010F01020200000074
:1023E00000F0000000000101011F010101000000D8
:1023F00000000000000080B070000000000000003D
:1024000000000000000000010101010101010000C5
:10241000000000000000003030000000000000005C
:10242000000080601804006018060100000000E051
:1024300010080810E000000F102020100F000010FE
:1024400010F8000000000020203F20200000007055
:10245000080808887000003028242221300000304D
:102460000888884830000018202020110E00000045
:10247000C02010F8000000070424243F240000F8C6
:102480000888880808000019212020110E0000E0AB
:10249000108888180000000F112020110E0000384D
:1024A0000808C83808000000003F00000000007065
:1024B000880808887000001C222121221C0000E0EE
:1024C00010080810E0000000312222110F00000067
:1024D00000C0C0000000000000303000000000001C
:1024E000008000000000000080600000000000008C
:1024F0008040201008000001020408102000404025
:102500004040404040000404040404040400000867
:10251000102040800000002010080402010000701C
:1025200048080808F0000000003036010000C03004
:10253000C828E810E0000718272423140B00000027
:10254000C038E0000000203C23020227382008F8B1
:10255000888888700000203F202020110E00C030A5
:10256000080808083800071820202010080008F87C
:1025700008080810E000203F202020100F0008F875
:102580008888E8081000203F20202320180008F841
:102590008888E8081000203F200003000000C030B9
:1025A00008080838000007182020221E020008F83A
:1025B00008000008F808203F210101213F20000801
:1025C00008F8080800000020203F2020000000003C
:1025D0000808F8080800C08080807F00000008F824
:1025E00088C028180800203F20012638200008F85D
:1025F000080000000000203F20202020300008F8C4
:10260000F800F8F80800203F003F003F200008F8DD
:1026100030C00008F808203F200007183F00E010F5
:1026200008080810E0000F10202020100F0008F804
:1026300008080808F000203F210101010000E01017
:1026400008080810E0000F18242438504F0008F83C
:10265000888888887000203F2000030C302000709C
:102660008808080838000038202121221C0018089A
:1026700008F8080818000000203F2000000008F8B3
:1026800008000008F808001F202020201F000878FC
:10269000880000C83808000007380E010000F8085C
:1026A00000F80008F800033C0700073C0300081886
:1026B00068808068180820302C03032C30200838EC
:1026C000C800C83808000000203F200000001008A3
:1026D0000808C838080020382621202018000000EB
:1026E00000FE020202000000007F40404000000C9B
:1026F00030C000000000000000010638C0000002E9
:102700000202FE000000004040407F000000000088
:1027100004020202040000000000000000000000AB
:1027200000000000000080808080808080800002A7
:102730000204000000000000000000000000000093
:102740008080808000000019242222223F2008F887
:10275000008080000000003F112020110E000000CA
:10276000008080800000000E112020201100000059
:1027700000808088F800000E112020103F2000000B
:10278000808080800000001F22222222130000800F
:1027900080F0888888180020203F2020000000005A
:1027A000808080808000006B94949493600008F88F
:1027B000008080800000203F210000203F2000801A
:1027C0009898000000000020203F2020000000001A
:1027D00000809898000000C08080807F000008F88A
:1027E000000080808000203F24022D30200000085F
:1027F00008F8000000000020203F2020000080801A
:10280000808080808000203F20003F20003F80802B
:10281000008080800000203F210000203F20000039
:10282000808080800000001F202020201F008080EA
:1028300000808000000080FFA12020110E00000019
:10284000008080808000000E112020A0FF8080800A
:1028500080008080800020203F21200001000000B7
:10286000808080808000003324242424190000808C
:1028700080E0808000000000001F20200000808099
:10288000000000808000001F202020103F2080805A
:1028900080000080808000010E30080601008080EA
:1028A0000080008080800F300C030C300F0000800F
:1028B0008000808080000020312E0E31200080803A
:1028C00080000080808080818E701806010000806A
:1028D0008080808080000021302C22213000000088
:1028E0000000807C020200000000003F4040000029
:1028F0000000FF00000000000000FF0000000002D8
:10290000027C800000000040403F00000000000604
:1029100001010202040400000000000000000000A9
:102920004029000800000020B8060000C40100088B
:10293000D02B0008B80600208806000028020008F6
:10294000920001100D0808E8292E28E80808C80C94
:102950000B0602100001000D13FF0949897F0000DA
:102960000F40807F000113FC2401F0082222222363
:102970002220201D30084020180700FE42010212CC
:10298000FE3E10083E22E2223E00FE40F0052222DA
:10299000E2021F200A203F201F1111007F4401F393
:1029A000474020100D040404F484D4A5A6A4D484C4
:1029B000F40C0110BF000E10FE0202123A161312A0
:1029C0001A3242827E7F000F10101010FF1090000C
:1029D000FE82828292A29E2014060444827F010518
:1029E000F00880432C102C4380A0F01012EAAFAA0C
:1029F000EA0FFA02888C5724548C84A01007020234
:102A0000EAAAAAAB0211010310EA02E010070008CB
:102A10003000FF200111050710222C40000F100488
:102A2000040201FF8040300E010618204080000E95
:102A300011000484844424548F1424448484FF00AB
:102A40001011413900003C4040424C4040700409A4
:102A500031801806884828180F01210101119F2391
:102A600008090132FF06091320061300D795E20278
:102A70001A331D053E40100980A0908E888888FF7B
:102A80000408051388888080A0393C00041344445E
:102A9000FC9E10072010E82427A4010B11B4ACBF42
:102AA00016007B000C120F00003F40404448474096
:102AB00070FE080D10225A864020504C434C502086
:102AC00040A0000E1200FF040807404458414E6029
:102AD0005847201C071088C43300401E031EC2251F
:102AE000030910E03C05020100FF48030D167E03B8
:102AF000053DC0313827F88944021388413E80C221
:102B00000311800F13403FFE03200AF808080CCA87
:102B1000494848C8480D123F041564121F1C02148E
:102B20001FC30D3E800419DB3804CC00800119045A
:102B30000D112003140640201F20409F0405124061
:102B4000405F40800D3DC004318008091200FF49FC
:102B500049C949497F7F3180040A135F4844404195
:102B60004245584080440488780FBF0511A01006E4
:102B7000201048464101227F05091160000F11C84D
:102B8000B88FE88888404848E85F484848601C0497
:102B90001808FF17050C0812020B1222D20A06E0D1
:102BA00003157B021838802E08800442410106116B
:102BB000FFFF013E8089EA20050102030404180595
:102BC0000607080978A0047A030A1A2116000000F3
:040000050800018965
:00000001FF
